{
  "contractName": "power",
  "abi": [
    {
      "constant": true,
      "inputs": [
        {
          "name": "",
          "type": "uint256"
        }
      ],
      "name": "nodes",
      "outputs": [
        {
          "name": "id",
          "type": "uint256"
        },
        {
          "name": "sid",
          "type": "uint256"
        },
        {
          "name": "balance",
          "type": "int256"
        },
        {
          "name": "excess",
          "type": "int256"
        }
      ],
      "payable": false,
      "stateMutability": "view",
      "type": "function",
      "signature": "0x1c53c280"
    },
    {
      "constant": true,
      "inputs": [
        {
          "name": "",
          "type": "uint256"
        }
      ],
      "name": "sArr",
      "outputs": [
        {
          "name": "",
          "type": "uint256"
        }
      ],
      "payable": false,
      "stateMutability": "view",
      "type": "function",
      "signature": "0x4254d8a6"
    },
    {
      "constant": true,
      "inputs": [],
      "name": "sLen",
      "outputs": [
        {
          "name": "",
          "type": "uint256"
        }
      ],
      "payable": false,
      "stateMutability": "view",
      "type": "function",
      "signature": "0x79eb4ae9"
    },
    {
      "constant": true,
      "inputs": [
        {
          "name": "",
          "type": "uint256"
        }
      ],
      "name": "sNodes",
      "outputs": [
        {
          "name": "sid",
          "type": "uint256"
        },
        {
          "name": "balance",
          "type": "int256"
        },
        {
          "name": "excess",
          "type": "int256"
        },
        {
          "name": "arrSize",
          "type": "uint256"
        }
      ],
      "payable": false,
      "stateMutability": "view",
      "type": "function",
      "signature": "0xad904e2f"
    },
    {
      "inputs": [],
      "payable": false,
      "stateMutability": "nonpayable",
      "type": "constructor",
      "signature": "constructor"
    },
    {
      "constant": false,
      "inputs": [
        {
          "name": "_amount",
          "type": "int256"
        },
        {
          "name": "_rec",
          "type": "uint256"
        }
      ],
      "name": "borrow",
      "outputs": [],
      "payable": true,
      "stateMutability": "payable",
      "type": "function",
      "signature": "0xf44888ad"
    },
    {
      "constant": false,
      "inputs": [
        {
          "name": "_superN",
          "type": "uint256"
        },
        {
          "name": "_amount",
          "type": "int256"
        }
      ],
      "name": "askSNode",
      "outputs": [],
      "payable": true,
      "stateMutability": "payable",
      "type": "function",
      "signature": "0xcb3af463"
    },
    {
      "constant": false,
      "inputs": [
        {
          "name": "_amount",
          "type": "int256"
        },
        {
          "name": "_caller",
          "type": "uint256"
        }
      ],
      "name": "consume",
      "outputs": [],
      "payable": false,
      "stateMutability": "nonpayable",
      "type": "function",
      "signature": "0x6848832b"
    }
  ],
  "bytecode": "0x608060405234801561001057600080fd5b506100196103e3565b608060405190810160405280600181526020016001815260200160648152602001600081525090508060008060018152602001908152602001600020600082015181600001556020820151816001015560408201518160020155606082015181600301559050506100886103e3565b608060405190810160405280600281526020016001815260200160648152602001600081525090508060008060028152602001908152602001600020600082015181600001556020820151816001015560408201518160020155606082015181600301559050506100f76103e3565b608060405190810160405280600381526020016001815260200160648152602001600081525090508060008060038152602001908152602001600020600082015181600001556020820151816001015560408201518160020155606082015181600301559050506101666103e3565b608060405190810160405280600481526020016002815260200160648152602001600081525090508060008060048152602001908152602001600020600082015181600001556020820151816001015560408201518160020155606082015181600301559050506101d56103e3565b6080604051908101604052806005815260200160028152602001606481526020016000815250905080600080600581526020019081526020016000206000820151816000015560208201518160010155604082015181600201556060820151816003015590505061024461040c565b60a0604051908101604052806001815260200161012c8152602001600081526020016003815260200160a060405190810160405280600160ff168152602001600260ff168152602001600360ff168152602001600060ff168152602001600060ff16815250815250905080600160006001815260200190815260200160002060008201518160000155602082015181600101556040820151816002015560608201518160030155608082015181600401906005610302929190610443565b5090505061030e61040c565b60a0604051908101604052806001815260200160c88152602001600081526020016002815260200160a060405190810160405280600460ff168152602001600560ff168152602001600060ff168152602001600060ff168152602001600060ff168152508152509050806001600060028152602001908152602001600020600082015181600001556020820151816001015560408201518160020155606082015181600301556080820151816004019060056103cb929190610443565b50905050600260038190555050505050505050610530565b608060405190810160405280600081526020016000815260200160008152602001600081525090565b610120604051908101604052806000815260200160008152602001600081526020016000815260200161043d6104dd565b81525090565b826005601f016020900481019282156104cc5791602002820160005b8382111561049d57835183826101000a81548160ff021916908360ff160217905550926020019260010160208160000104928301926001030261045f565b80156104ca5782816101000a81549060ff021916905560010160208160000104928301926001030261049d565b505b5090506104d99190610500565b5090565b60a060405190810160405280600590602082028038833980820191505090505090565b61052d91905b8082111561052957600081816101000a81549060ff021916905550600101610506565b5090565b90565b6105ea8061053f6000396000f3fe608060405260043610610083576000357c0100000000000000000000000000000000000000000000000000000000900463ffffffff1680631c53c280146100885780634254d8a6146100ec5780636848832b1461013b57806379eb4ae914610180578063ad904e2f146101ab578063cb3af4631461020f578063f44888ad14610247575b600080fd5b34801561009457600080fd5b506100c1600480360360208110156100ab57600080fd5b810190808035906020019092919050505061027f565b6040518085815260200184815260200183815260200182815260200194505050505060405180910390f35b3480156100f857600080fd5b506101256004803603602081101561010f57600080fd5b81019080803590602001909291905050506102af565b6040518082815260200191505060405180910390f35b34801561014757600080fd5b5061017e6004803603604081101561015e57600080fd5b8101908080359060200190929190803590602001909291905050506102d2565b005b34801561018c57600080fd5b506101956102f9565b6040518082815260200191505060405180910390f35b3480156101b757600080fd5b506101e4600480360360208110156101ce57600080fd5b81019080803590602001909291905050506102ff565b6040518085815260200184815260200183815260200182815260200194505050505060405180910390f35b6102456004803603604081101561022557600080fd5b81019080803590602001909291908035906020019092919050505061032f565b005b61027d6004803603604081101561025d57600080fd5b810190808035906020019092919080359060200190929190505050610415565b005b60006020528060005260406000206000915090508060000154908060010154908060020154908060030154905084565b6002818154811015156102be57fe5b906000526020600020016000915090505481565b81600080838152602001908152602001600020600201600082825403925050819055505050565b60035481565b60016020528060005260406000206000915090508060000154908060010154908060020154908060030154905084565b60008090505b60035481101561041057600060018201905083811415801561036c5750826001600083815260200190815260200160002060010154135b15610402578260016000838152602001908152602001600020600101600082825403925050819055508260016000868152602001908152602001600020600101600082825401925050819055508260016000868152602001908152602001600020600201600082825401925050819055508260016000838152602001908152602001600020600201600082825403925050819055505b508080600101915050610335565b505050565b60008060008381526020019081526020016000206000015490506000806000848152602001908152602001600020600101549050600060016000838152602001908152602001600020600301549050600060019050600080905060008090505b8381101561059c57600060016000878152602001908152602001600020600401826005811015156104a257fe5b602091828204019190069054906101000a900460ff1660ff1690508681141580156104e157508860008083815260200190815260200160002060020154135b1561057b57600093508860008083815260200190815260200160002060020160008282540392505081905550886000808981526020019081526020016000206002016000828254019250508190555088600080898152602001908152602001600020600301600082825401925050819055508860008083815260200190815260200160002060030160008282540392505081905550600192505b60011515831515141561058e575061059c565b508080600101915050610475565b506001151582151514156105b5576105b4848861032f565b5b5050505050505056fea165627a7a72305820b0171730e753b45fa626860e72380878276f2b75237afaccbb0ead51cf145b230029",
  "source": "pragma solidity ^0.5.0;\n\ncontract power {\n\n  struct Node\n  {\n    uint id;\n    uint sid;\n    int balance;\n    int excess;\n  }\n  struct Snode\n  {\n     uint sid;\n     int balance;\n     int excess;\n     uint arrSize;\n     uint8 [5] nArr;\n  }\n  mapping (uint => Node) public nodes;\n  mapping(uint => Snode) public sNodes;\n  uint [] public sArr;\n  uint public sLen;\n  constructor() public {\n    Node memory N1= Node(1,1,100,0);\n    nodes[1]=N1;\n    Node memory N2= Node(2,1,100,0);\n    nodes[2]=N2;\n    Node memory N3= Node(3,1,100,0);\n    nodes[3]=N3;\n    Node memory N4= Node(4,2,100,0);\n    nodes[4]=N4;\n    Node memory N5= Node(5,2,100,0);\n    nodes[5]=N5;\n    Snode memory SN1= Snode(1,300,0,3,[1,2,3,0,0]);\n    sNodes[1]=SN1;\n    Snode memory SN2= Snode(1,200,0,2,[4,5,0,0,0]);\n    sNodes[2]=SN2;\n    sLen=2;\n     \n  }\n  function borrow(int _amount,uint _rec) public payable {\n      uint borrower=nodes[_rec].id;\n      uint superN= nodes[_rec].sid;\n      uint len=sNodes[superN].arrSize;\n      //address [] memory tempArr=sNodes[superN].nArr;\n      bool flag=true;\n      bool done=false;\n      for(uint index=0;index<len;index++)\n      {\n        uint temp=sNodes[superN].nArr[index];\n         if(temp!=borrower && nodes[temp].balance>_amount)\n         {\n           flag=false;\n           nodes[temp].balance-=_amount;\n           nodes[borrower].balance += _amount;\n           nodes[borrower].excess += _amount;\n           nodes[temp].excess-=_amount;\n           done=true;\n         }\n         if(done==true)\n           break;\n\n      }\n      if(flag==true)\n      {\n        askSNode(superN,_amount);\n      }\n  }\n  function askSNode (uint _superN,int _amount) public payable\n  {\n    \n      for(uint index=0;index<sLen;index++)\n      {\n          uint temp=index+1;\n          if(temp!=_superN && sNodes[temp].balance>_amount)\n          {\n           sNodes[temp].balance-=_amount;\n           sNodes[_superN].balance += _amount;\n           sNodes[_superN].excess += _amount;\n           sNodes[temp].excess-=_amount;\n        \n          }  \n      }\n  }\n  \n  function consume(int _amount,uint _caller) public\n  {\n    nodes[_caller].balance-=_amount;\n  }\n}\n",
  "sourcePath": "/home/kriti/Powergrid/contracts/power.sol",
  "compiler": {
    "name": "solc",
    "version": "0.5.0+commit.1d4f565a.Emscripten.clang"
  },
  "schemaVersion": "3.0.6",
  "updatedAt": "2019-04-22T10:31:39.563Z",
  "devdoc": {
    "methods": {}
  },
  "userdoc": {
    "methods": {}
  }
}